{
  "address": "0x3f9cc786bD132d8396AD0b72b675667D0dEEE598",
  "abi": [
    {
      "anonymous": false,
      "inputs": [
        {
          "indexed": false,
          "internalType": "address",
          "name": "previousAdmin",
          "type": "address"
        },
        {
          "indexed": false,
          "internalType": "address",
          "name": "newAdmin",
          "type": "address"
        }
      ],
      "name": "AdminChanged",
      "type": "event"
    },
    {
      "anonymous": false,
      "inputs": [
        {
          "indexed": true,
          "internalType": "uint256",
          "name": "auctionId",
          "type": "uint256"
        },
        {
          "indexed": true,
          "internalType": "address",
          "name": "nftAddress",
          "type": "address"
        },
        {
          "indexed": true,
          "internalType": "uint256",
          "name": "tokenId",
          "type": "uint256"
        },
        {
          "indexed": false,
          "internalType": "address",
          "name": "seller",
          "type": "address"
        },
        {
          "indexed": false,
          "internalType": "uint256",
          "name": "startTime",
          "type": "uint256"
        },
        {
          "indexed": false,
          "internalType": "uint256",
          "name": "endTime",
          "type": "uint256"
        },
        {
          "indexed": false,
          "internalType": "address",
          "name": "paymentTokenAddress",
          "type": "address"
        }
      ],
      "name": "AuctionCreated",
      "type": "event"
    },
    {
      "anonymous": false,
      "inputs": [
        {
          "indexed": true,
          "internalType": "uint256",
          "name": "auctionId",
          "type": "uint256"
        },
        {
          "indexed": true,
          "internalType": "address",
          "name": "winnerAddress",
          "type": "address"
        },
        {
          "indexed": false,
          "internalType": "uint256",
          "name": "winningBidAmount",
          "type": "uint256"
        },
        {
          "indexed": false,
          "internalType": "address",
          "name": "paymentTokenAddress",
          "type": "address"
        }
      ],
      "name": "AuctionEnded",
      "type": "event"
    },
    {
      "anonymous": false,
      "inputs": [
        {
          "indexed": true,
          "internalType": "address",
          "name": "beacon",
          "type": "address"
        }
      ],
      "name": "BeaconUpgraded",
      "type": "event"
    },
    {
      "anonymous": false,
      "inputs": [
        {
          "indexed": true,
          "internalType": "uint256",
          "name": "auctionId",
          "type": "uint256"
        },
        {
          "indexed": true,
          "internalType": "address",
          "name": "bidder",
          "type": "address"
        },
        {
          "indexed": false,
          "internalType": "uint256",
          "name": "amount",
          "type": "uint256"
        },
        {
          "indexed": false,
          "internalType": "bool",
          "name": "isERC20",
          "type": "bool"
        },
        {
          "indexed": false,
          "internalType": "address",
          "name": "erc20Address",
          "type": "address"
        }
      ],
      "name": "BidPlaced",
      "type": "event"
    },
    {
      "anonymous": false,
      "inputs": [
        {
          "indexed": false,
          "internalType": "uint8",
          "name": "version",
          "type": "uint8"
        }
      ],
      "name": "Initialized",
      "type": "event"
    },
    {
      "anonymous": false,
      "inputs": [
        {
          "indexed": true,
          "internalType": "address",
          "name": "previousOwner",
          "type": "address"
        },
        {
          "indexed": true,
          "internalType": "address",
          "name": "newOwner",
          "type": "address"
        }
      ],
      "name": "OwnershipTransferred",
      "type": "event"
    },
    {
      "anonymous": false,
      "inputs": [
        {
          "indexed": true,
          "internalType": "address",
          "name": "implementation",
          "type": "address"
        }
      ],
      "name": "Upgraded",
      "type": "event"
    },
    {
      "inputs": [],
      "name": "auctionCount",
      "outputs": [
        {
          "internalType": "uint256",
          "name": "",
          "type": "uint256"
        }
      ],
      "stateMutability": "view",
      "type": "function"
    },
    {
      "inputs": [],
      "name": "auctionFactory",
      "outputs": [
        {
          "internalType": "address",
          "name": "",
          "type": "address"
        }
      ],
      "stateMutability": "view",
      "type": "function"
    },
    {
      "inputs": [],
      "name": "baseFeePercentage",
      "outputs": [
        {
          "internalType": "uint256",
          "name": "",
          "type": "uint256"
        }
      ],
      "stateMutability": "view",
      "type": "function"
    },
    {
      "inputs": [
        {
          "internalType": "uint256",
          "name": "auctionId",
          "type": "uint256"
        }
      ],
      "name": "bid",
      "outputs": [],
      "stateMutability": "payable",
      "type": "function"
    },
    {
      "inputs": [
        {
          "internalType": "uint256",
          "name": "auctionId",
          "type": "uint256"
        },
        {
          "internalType": "uint256",
          "name": "amount",
          "type": "uint256"
        }
      ],
      "name": "bidWithERC20",
      "outputs": [],
      "stateMutability": "nonpayable",
      "type": "function"
    },
    {
      "inputs": [
        {
          "internalType": "uint256",
          "name": "auctionId",
          "type": "uint256"
        }
      ],
      "name": "calculateDynamicFee",
      "outputs": [
        {
          "internalType": "uint256",
          "name": "",
          "type": "uint256"
        }
      ],
      "stateMutability": "view",
      "type": "function"
    },
    {
      "inputs": [
        {
          "internalType": "uint256",
          "name": "auctionId",
          "type": "uint256"
        },
        {
          "internalType": "address",
          "name": "nftAddress",
          "type": "address"
        },
        {
          "internalType": "uint256",
          "name": "tokenId",
          "type": "uint256"
        },
        {
          "internalType": "uint256",
          "name": "startPrice",
          "type": "uint256"
        },
        {
          "internalType": "uint256",
          "name": "startTime",
          "type": "uint256"
        },
        {
          "internalType": "uint256",
          "name": "endTime",
          "type": "uint256"
        },
        {
          "internalType": "address",
          "name": "paymentTokenAddress",
          "type": "address"
        },
        {
          "internalType": "address",
          "name": "from",
          "type": "address"
        }
      ],
      "name": "createAuction",
      "outputs": [],
      "stateMutability": "nonpayable",
      "type": "function"
    },
    {
      "inputs": [
        {
          "internalType": "uint256",
          "name": "auctionId",
          "type": "uint256"
        }
      ],
      "name": "endAuction",
      "outputs": [],
      "stateMutability": "nonpayable",
      "type": "function"
    },
    {
      "inputs": [],
      "name": "feeThreshold",
      "outputs": [
        {
          "internalType": "uint256",
          "name": "",
          "type": "uint256"
        }
      ],
      "stateMutability": "view",
      "type": "function"
    },
    {
      "inputs": [
        {
          "internalType": "uint256",
          "name": "auctionId",
          "type": "uint256"
        }
      ],
      "name": "getAuctionDetails",
      "outputs": [
        {
          "internalType": "address",
          "name": "nftAddress",
          "type": "address"
        },
        {
          "internalType": "uint256",
          "name": "tokenId",
          "type": "uint256"
        },
        {
          "internalType": "address",
          "name": "seller",
          "type": "address"
        },
        {
          "internalType": "uint256",
          "name": "startPrice",
          "type": "uint256"
        },
        {
          "internalType": "uint256",
          "name": "startTime",
          "type": "uint256"
        },
        {
          "internalType": "uint256",
          "name": "endTime",
          "type": "uint256"
        },
        {
          "internalType": "address",
          "name": "paymentTokenAddress",
          "type": "address"
        },
        {
          "internalType": "enum IAuction.AuctionStatus",
          "name": "status",
          "type": "uint8"
        },
        {
          "internalType": "uint256",
          "name": "highestBid",
          "type": "uint256"
        },
        {
          "internalType": "address",
          "name": "highestBidder",
          "type": "address"
        }
      ],
      "stateMutability": "view",
      "type": "function"
    },
    {
      "inputs": [
        {
          "internalType": "uint256",
          "name": "auctionId",
          "type": "uint256"
        }
      ],
      "name": "getCurrentBidInUSD",
      "outputs": [
        {
          "internalType": "uint256",
          "name": "",
          "type": "uint256"
        }
      ],
      "stateMutability": "view",
      "type": "function"
    },
    {
      "inputs": [
        {
          "internalType": "address",
          "name": "_platformFeeAddress",
          "type": "address"
        },
        {
          "internalType": "address",
          "name": "_auctionFactory",
          "type": "address"
        }
      ],
      "name": "initialize",
      "outputs": [],
      "stateMutability": "nonpayable",
      "type": "function"
    },
    {
      "inputs": [],
      "name": "owner",
      "outputs": [
        {
          "internalType": "address",
          "name": "",
          "type": "address"
        }
      ],
      "stateMutability": "view",
      "type": "function"
    },
    {
      "inputs": [],
      "name": "platformFeeAddress",
      "outputs": [
        {
          "internalType": "address",
          "name": "",
          "type": "address"
        }
      ],
      "stateMutability": "view",
      "type": "function"
    },
    {
      "inputs": [],
      "name": "proxiableUUID",
      "outputs": [
        {
          "internalType": "bytes32",
          "name": "",
          "type": "bytes32"
        }
      ],
      "stateMutability": "view",
      "type": "function"
    },
    {
      "inputs": [],
      "name": "renounceOwnership",
      "outputs": [],
      "stateMutability": "nonpayable",
      "type": "function"
    },
    {
      "inputs": [
        {
          "internalType": "address",
          "name": "newOwner",
          "type": "address"
        }
      ],
      "name": "transferOwnership",
      "outputs": [],
      "stateMutability": "nonpayable",
      "type": "function"
    },
    {
      "inputs": [
        {
          "internalType": "uint256",
          "name": "newBaseFee",
          "type": "uint256"
        },
        {
          "internalType": "uint256",
          "name": "newThreshold",
          "type": "uint256"
        }
      ],
      "name": "updateFeeParameters",
      "outputs": [],
      "stateMutability": "nonpayable",
      "type": "function"
    },
    {
      "inputs": [
        {
          "internalType": "address",
          "name": "newImplementation",
          "type": "address"
        }
      ],
      "name": "upgradeTo",
      "outputs": [],
      "stateMutability": "nonpayable",
      "type": "function"
    },
    {
      "inputs": [
        {
          "internalType": "address",
          "name": "newImplementation",
          "type": "address"
        },
        {
          "internalType": "bytes",
          "name": "data",
          "type": "bytes"
        }
      ],
      "name": "upgradeToAndCall",
      "outputs": [],
      "stateMutability": "payable",
      "type": "function"
    }
  ],
  "transactionHash": "0xd82577f4ad61a51205d77305b69d9fd97e043fea94f9a1596f90402f1b960fb8",
  "args": [],
  "numDeployments": 1,
  "solcInputHash": "2365b34b5b204c6fc40a42e7f14bae7a",
  "bytecode": "0x60a06040523060805234801561001457600080fd5b50600160c9556080516128036100516000396000818161083a0152818161087a01528181610b6601528181610ba60152610c3501526128036000f3fe60806040526004361061011f5760003560e01c80638375bb39116100a0578063d4308c8511610064578063d4308c85146102dd578063d62a0f81146102fd578063ed14834f1461031d578063f20e5e351461033d578063f2fde38b1461037357600080fd5b80638375bb391461023f5780638da5cb5b14610255578063abf4fde414610287578063b9a2de3a146102a7578063cb4e162b146102c757600080fd5b8063454a2ab3116100e7578063454a2ab3146101cf578063485cc955146101e25780634f1ef2861461020257806352d1902d14610215578063715018a61461022a57600080fd5b806317e29dc41461012457806321f0485d146101465780632ad715731461016657806333cb945a1461018f5780633659cfe6146101af575b600080fd5b34801561013057600080fd5b5061014461013f3660046120cf565b610393565b005b34801561015257600080fd5b5061014461016136600461214b565b6105ee565b34801561017257600080fd5b5061017c60cd5481565b6040519081526020015b60405180910390f35b34801561019b57600080fd5b5061017c6101aa36600461216d565b61072b565b3480156101bb57600080fd5b506101446101ca366004612186565b610830565b6101446101dd36600461216d565b61090f565b3480156101ee57600080fd5b506101446101fd3660046121a3565b6109a8565b6101446102103660046121f2565b610b5c565b34801561022157600080fd5b5061017c610c28565b34801561023657600080fd5b50610144610cdb565b34801561024b57600080fd5b5061017c60cb5481565b34801561026157600080fd5b506097546001600160a01b03165b6040516001600160a01b039091168152602001610186565b34801561029357600080fd5b5060cf5461026f906001600160a01b031681565b3480156102b357600080fd5b506101446102c236600461216d565b610cef565b3480156102d357600080fd5b5061017c60cc5481565b3480156102e957600080fd5b506101446102f836600461214b565b6110eb565b34801561030957600080fd5b5061017c61031836600461216d565b6110fe565b34801561032957600080fd5b5060ce5461026f906001600160a01b031681565b34801561034957600080fd5b5061035d61035836600461216d565b61125f565b6040516101869a999897969594939291906122cc565b34801561037f57600080fd5b5061014461038e366004612186565b611301565b600088815260ca60205260409020600201546001600160a01b0316156104005760405162461bcd60e51b815260206004820152601960248201527f41756374696f6e20494420616c7265616479206578697374730000000000000060448201526064015b60405180910390fd5b83831161044f5760405162461bcd60e51b815260206004820152601860248201527f496e76616c69642061756374696f6e206475726174696f6e000000000000000060448201526064016103f7565b600085116104955760405162461bcd60e51b8152602060048201526013602482015272496e76616c696420737461727420707269636560681b60448201526064016103f7565b6040516323b872dd60e01b81526001600160a01b038816906323b872dd906104c590849030908b90600401612359565b600060405180830381600087803b1580156104df57600080fd5b505af11580156104f3573d6000803e3d6000fd5b505050600089815260ca6020526040812080546001600160a01b038b81166001600160a01b0319928316178355600183018b9055600283018054831633179055600383018a905560048301899055600583018890556006830180549188166001600160a81b031990921691909117905560078201839055600882018054909116905560cd8054919350909161058783612393565b909155505060408051338152602081018790528082018690526001600160a01b038581166060830152915189928b16918c917f35307ae78277f7a6939b4c091fee2c5a1fd6d1c40ed27ee46bf3338b3f47bc069181900360800190a4505050505050505050565b6105f6611377565b600082116106165760405162461bcd60e51b81526004016103f7906123ac565b600082815260ca60205260409020600601546001600160a01b031661066c5760405162461bcd60e51b815260206004820152600c60248201526b09aeae6e840eae6ca408aa8960a31b60448201526064016103f7565b600082815260ca6020526040908190206006015490516323b872dd60e01b81526001600160a01b03909116906323b872dd906106b090339030908690600401612359565b6020604051808303816000875af11580156106cf573d6000803e3d6000fd5b505050506040513d601f19601f820116820180604052508101906106f391906123d8565b50600082815260ca602052604081206006015461071d9184918491906001600160a01b03166113d0565b610727600160c955565b5050565b600081815260ca602052604081206007810154820361074d5750600092915050565b60068101546000906001600160a01b0316156107e1578160060160009054906101000a90046001600160a01b03166001600160a01b031663313ce5676040518163ffffffff1660e01b8152600401602060405180830381865afa1580156107b8573d6000803e3d6000fd5b505050506040513d601f19601f820116820180604052508101906107dc91906123fa565b6107e4565b60125b60078301546006840154919250610828918390610823906001600160a01b03161561081c5760068601546001600160a01b03166117d9565b60006117d9565b6118a9565b949350505050565b6001600160a01b037f00000000000000000000000000000000000000000000000000000000000000001630036108785760405162461bcd60e51b81526004016103f79061241d565b7f00000000000000000000000000000000000000000000000000000000000000006001600160a01b03166108c1600080516020612787833981519152546001600160a01b031690565b6001600160a01b0316146108e75760405162461bcd60e51b81526004016103f790612469565b6108f0816119a0565b6040805160008082526020820190925261090c918391906119a8565b50565b610917611377565b600081116109375760405162461bcd60e51b81526004016103f7906123ac565b600081815260ca60205260409020600601546001600160a01b0316156109905760405162461bcd60e51b815260206004820152600e60248201526d04d757374207573652045524332360941b60448201526064016103f7565b61099e8134600160006113d0565b61090c600160c955565b600054610100900460ff16158080156109c85750600054600160ff909116105b806109e25750303b1580156109e2575060005460ff166001145b610a455760405162461bcd60e51b815260206004820152602e60248201527f496e697469616c697a61626c653a20636f6e747261637420697320616c72656160448201526d191e481a5b9a5d1a585b1a5e995960921b60648201526084016103f7565b6000805460ff191660011790558015610a68576000805461ff0019166101001790555b610a70611b13565b610a78611b42565b6001600160a01b038316610ace5760405162461bcd60e51b815260206004820152601c60248201527f506c6174666f726d206665652061646472657373206973207a65726f0000000060448201526064016103f7565b60ce80546001600160a01b038086166001600160a01b03199283161790925560fa60cb5569021e19e0c9bab240000060cc5560cf8054928516929091169190911790558015610b57576000805461ff0019169055604051600181527f7f26b83ff96e1f2b6a682f133852f6798a09c465da95921460cefb38474024989060200160405180910390a15b505050565b6001600160a01b037f0000000000000000000000000000000000000000000000000000000000000000163003610ba45760405162461bcd60e51b81526004016103f79061241d565b7f00000000000000000000000000000000000000000000000000000000000000006001600160a01b0316610bed600080516020612787833981519152546001600160a01b031690565b6001600160a01b031614610c135760405162461bcd60e51b81526004016103f790612469565b610c1c826119a0565b610727828260016119a8565b6000306001600160a01b037f00000000000000000000000000000000000000000000000000000000000000001614610cc85760405162461bcd60e51b815260206004820152603860248201527f555550535570677261646561626c653a206d757374206e6f742062652063616c60448201527f6c6564207468726f7567682064656c656761746563616c6c000000000000000060648201526084016103f7565b5060008051602061278783398151915290565b610ce3611b69565b610ced6000611bc3565b565b610cf7611377565b600081815260ca60205260408120906006820154600160a01b900460ff166002811115610d2657610d266122b6565b14610d6b5760405162461bcd60e51b815260206004820152601560248201527441756374696f6e206973206e6f742061637469766560581b60448201526064016103f7565b806005015442101580610d8a575060028101546001600160a01b031633145b610dce5760405162461bcd60e51b8152602060048201526015602482015274105d58dd1a5bdb881a185cc81b9bdd08195b991959605a1b60448201526064016103f7565b60068101805460ff60a01b1916600160a01b17905560088101546001600160a01b031615611019576000610e01836110fe565b90506000818360070154610e1591906124b5565b60068401549091506001600160a01b0316610ea75760028301546040516001600160a01b039091169082156108fc029083906000818181858888f19350505050158015610e66573d6000803e3d6000fd5b5060ce546040516001600160a01b039091169083156108fc029084906000818181858888f19350505050158015610ea1573d6000803e3d6000fd5b50610fa2565b6006830154600284015460405163a9059cbb60e01b81526001600160a01b0391821660048201526024810184905291169063a9059cbb906044016020604051808303816000875af1158015610f00573d6000803e3d6000fd5b505050506040513d601f19601f82011682018060405250810190610f2491906123d8565b50600683015460ce5460405163a9059cbb60e01b81526001600160a01b0391821660048201526024810185905291169063a9059cbb906044016020604051808303816000875af1158015610f7c573d6000803e3d6000fd5b505050506040513d601f19601f82011682018060405250810190610fa091906123d8565b505b8254600884015460018501546040516323b872dd60e01b81526001600160a01b03938416936323b872dd93610fe09330939290911691600401612359565b600060405180830381600087803b158015610ffa57600080fd5b505af115801561100e573d6000803e3d6000fd5b50505050505061108a565b8054600282015460018301546040516323b872dd60e01b81526001600160a01b03938416936323b872dd936110579330939290911691600401612359565b600060405180830381600087803b15801561107157600080fd5b505af1158015611085573d6000803e3d6000fd5b505050505b600881015460078201546006830154604080519283526001600160a01b03918216602084015292169184917fbb6764412c29916bdf4a5c6fe6b1c079de35682160b2289928ce003ab459a749910160405180910390a35061090c600160c955565b6110f3611b69565b60cb9190915560cc55565b600081815260ca6020526040812060088101546001600160a01b03166111275750600092915050565b600061271060cb54836007015461113e91906124c8565b61114891906124df565b60068301549091506000906001600160a01b0316156111df578260060160009054906101000a90046001600160a01b03166001600160a01b031663313ce5676040518163ffffffff1660e01b8152600401602060405180830381865afa1580156111b6573d6000803e3d6000fd5b505050506040513d601f19601f820116820180604052508101906111da91906123fa565b6111e2565b60125b6007840154600685015491925060009161121e91908490610823906001600160a01b03161561081c5760068801546001600160a01b03166117d9565b9050600061123460cc54601261082360006117d9565b905080821115611254576112496002856124df565b979650505050505050565b509195945050505050565b60008060008060008060008060008060008b1161128e5760405162461bcd60e51b81526004016103f7906123ac565b5050506000978852505060ca60205250506040909320805460018201546002830154600384015460048501546005860154600687015460078801546008909801546001600160a01b039788169c969b5094871699509297509095909480831694600160a01b90930460ff16939192911690565b611309611b69565b6001600160a01b03811661136e5760405162461bcd60e51b815260206004820152602660248201527f4f776e61626c653a206e6577206f776e657220697320746865207a65726f206160448201526564647265737360d01b60648201526084016103f7565b61090c81611bc3565b600260c954036113c95760405162461bcd60e51b815260206004820152601f60248201527f5265656e7472616e637947756172643a207265656e7472616e742063616c6c0060448201526064016103f7565b600260c955565b600084815260ca60205260408120906006820154600160a01b900460ff1660028111156113ff576113ff6122b6565b146114445760405162461bcd60e51b815260206004820152601560248201527441756374696f6e206973206e6f742061637469766560581b60448201526064016103f7565b80600401544210156114985760405162461bcd60e51b815260206004820152601760248201527f41756374696f6e20686173206e6f74207374617274656400000000000000000060448201526064016103f7565b80600501544211156114e05760405162461bcd60e51b8152602060048201526011602482015270105d58dd1a5bdb881a185cc8195b991959607a1b60448201526064016103f7565b8060030154841161152b5760405162461bcd60e51b81526020600482015260156024820152744269642062656c6f7720737461727420707269636560581b60448201526064016103f7565b8060070154841161157e5760405162461bcd60e51b815260206004820152601d60248201527f4269642062656c6f772063757272656e7420686967686573742062696400000060448201526064016103f7565b6000836115ec57826001600160a01b031663313ce5676040518163ffffffff1660e01b8152600401602060405180830381865afa1580156115c3573d6000803e3d6000fd5b505050506040513d601f19601f820116820180604052508101906115e791906123fa565b6115ef565b60125b9050600061160686836108238861081c57876117d9565b905060008084600701541161161c576000611633565b6116338460070154846108238961081c57886117d9565b90508082116116905760405162461bcd60e51b8152602060048201526024808201527f4269642062656c6f772063757272656e7420686967686573742062696420696e604482015263081554d160e21b60648201526084016103f7565b60088401546001600160a01b0316156116ac576116ac84611c15565b600784018790556008840180546001600160a01b0319908116339081179092556040805160a08101825283815260208082018c8152428385019081528c15606085018181526001600160a01b038e81166080880190815260098f0180546001818101835560009283529890912098516004909102909801805498831698909a1697909717895593519488019490945590516002870155915160039095018054935190911661010002610100600160a81b0319951515959095166001600160a81b031990931692909217939093179055518a917ffb4dc2c7012b08865c052def85c46cf4041fb9e60d910354c5fa39200a27a6ad916117c7918c918b9092835290151560208301526001600160a01b0316604082015260600190565b60405180910390a35050505050505050565b60cf54604051630ce8f72960e31b81526001600160a01b0383811660048301526000928392911690636747b94890602401602060405180830381865afa158015611827573d6000803e3d6000fd5b505050506040513d601f19601f8201168201806040525081019061184b9190612501565b90506001600160a01b0381166118a35760405162461bcd60e51b815260206004820152601d60248201527f466163746f727920686173206e6f206665656420666f7220746f6b656e00000060448201526064016103f7565b92915050565b60008084116118fa5760405162461bcd60e51b815260206004820152601760248201527f416d6f756e7420696e20746f6b656e206973207a65726f00000000000000000060448201526064016103f7565b6001600160a01b0382166119505760405162461bcd60e51b815260206004820152601a60248201527f507269636520666565642061646472657373206973207a65726f00000000000060448201526064016103f7565b600061195b83611d2f565b9050600061196a85601261251e565b61197590600a61261b565b61197f90876124c8565b90506000670de0b6b3a764000061199684846124c8565b61124991906124df565b61090c611b69565b7f4910fdfa16fed3260ed0e7147f7cc6da11a60208b5b9406d12a635614ffd91435460ff16156119db57610b5783611e41565b826001600160a01b03166352d1902d6040518163ffffffff1660e01b8152600401602060405180830381865afa925050508015611a35575060408051601f3d908101601f19168201909252611a329181019061262a565b60015b611a985760405162461bcd60e51b815260206004820152602e60248201527f45524331393637557067726164653a206e657720696d706c656d656e7461746960448201526d6f6e206973206e6f74205555505360901b60648201526084016103f7565b6000805160206127878339815191528114611b075760405162461bcd60e51b815260206004820152602960248201527f45524331393637557067726164653a20756e737570706f727465642070726f786044820152681a58589b195555525160ba1b60648201526084016103f7565b50610b57838383611edd565b600054610100900460ff16611b3a5760405162461bcd60e51b81526004016103f790612643565b610ced611f08565b600054610100900460ff16610ced5760405162461bcd60e51b81526004016103f790612643565b6097546001600160a01b03163314610ced5760405162461bcd60e51b815260206004820181905260248201527f4f776e61626c653a2063616c6c6572206973206e6f7420746865206f776e657260448201526064016103f7565b609780546001600160a01b038381166001600160a01b0319831681179093556040519116919082907f8be0079c531659141344cd1fd0a4f28419497f9722a3daafe3b4186f6b6457e090600090a35050565b60098101805460009190611c2b906001906124b5565b81548110611c3b57611c3b61268e565b600091825260209091206004909102018054600182015460038301549293506001600160a01b039182169290916101008204169060ff1615611cf05760405163a9059cbb60e01b81526001600160a01b0384811660048301526024820184905282169063a9059cbb906044016020604051808303816000875af1158015611cc6573d6000803e3d6000fd5b505050506040513d601f19601f82011682018060405250810190611cea91906123d8565b50611d28565b6040516001600160a01b0384169083156108fc029084906000818181858888f19350505050158015611d26573d6000803e3d6000fd5b505b5050505050565b60006001600160a01b038216611d875760405162461bcd60e51b815260206004820152601a60248201527f507269636520666565642061646472657373206973207a65726f00000000000060448201526064016103f7565b6000826001600160a01b031663feaf968c6040518163ffffffff1660e01b815260040160a060405180830381865afa158015611dc7573d6000803e3d6000fd5b505050506040513d601f19601f82011682018060405250810190611deb91906126c3565b505050915050600081136118a35760405162461bcd60e51b815260206004820152601d60248201527f496e76616c69642070726963652066726f6d207072696365206665656400000060448201526064016103f7565b6001600160a01b0381163b611eae5760405162461bcd60e51b815260206004820152602d60248201527f455243313936373a206e657720696d706c656d656e746174696f6e206973206e60448201526c1bdd08184818dbdb9d1c9858dd609a1b60648201526084016103f7565b60008051602061278783398151915280546001600160a01b0319166001600160a01b0392909216919091179055565b611ee683611f38565b600082511180611ef35750805b15610b5757611f028383611f78565b50505050565b600054610100900460ff16611f2f5760405162461bcd60e51b81526004016103f790612643565b610ced33611bc3565b611f4181611e41565b6040516001600160a01b038216907fbc7cd75a20ee27fd9adebab32041f755214dbc6bffa90cc0225b39da2e5c2d3b90600090a250565b6060611f9d83836040518060600160405280602781526020016127a760279139611fa4565b9392505050565b6060600080856001600160a01b031685604051611fc19190612737565b600060405180830381855af49150503d8060008114611ffc576040519150601f19603f3d011682016040523d82523d6000602084013e612001565b606091505b50915091506120128683838761201c565b9695505050505050565b6060831561208b578251600003612084576001600160a01b0385163b6120845760405162461bcd60e51b815260206004820152601d60248201527f416464726573733a2063616c6c20746f206e6f6e2d636f6e747261637400000060448201526064016103f7565b5081610828565b61082883838151156120a05781518083602001fd5b8060405162461bcd60e51b81526004016103f79190612753565b6001600160a01b038116811461090c57600080fd5b600080600080600080600080610100898b0312156120ec57600080fd5b8835975060208901356120fe816120ba565b965060408901359550606089013594506080890135935060a0890135925060c089013561212a816120ba565b915060e089013561213a816120ba565b809150509295985092959890939650565b6000806040838503121561215e57600080fd5b50508035926020909101359150565b60006020828403121561217f57600080fd5b5035919050565b60006020828403121561219857600080fd5b8135611f9d816120ba565b600080604083850312156121b657600080fd5b82356121c1816120ba565b915060208301356121d1816120ba565b809150509250929050565b634e487b7160e01b600052604160045260246000fd5b6000806040838503121561220557600080fd5b8235612210816120ba565b9150602083013567ffffffffffffffff8082111561222d57600080fd5b818501915085601f83011261224157600080fd5b813581811115612253576122536121dc565b604051601f8201601f19908116603f0116810190838211818310171561227b5761227b6121dc565b8160405282815288602084870101111561229457600080fd5b8260208601602083013760006020848301015280955050505050509250929050565b634e487b7160e01b600052602160045260246000fd5b6001600160a01b038b81168252602082018b90528981166040830152606082018990526080820188905260a08201879052851660c082015261014081016003851061232757634e487b7160e01b600052602160045260246000fd5b8460e08301528361010083015261234a6101208301846001600160a01b03169052565b9b9a5050505050505050505050565b6001600160a01b039384168152919092166020820152604081019190915260600190565b634e487b7160e01b600052601160045260246000fd5b6000600182016123a5576123a561237d565b5060010190565b602080825260129082015271125b9d985b1a5908185d58dd1a5bdb88125160721b604082015260600190565b6000602082840312156123ea57600080fd5b81518015158114611f9d57600080fd5b60006020828403121561240c57600080fd5b815160ff81168114611f9d57600080fd5b6020808252602c908201527f46756e6374696f6e206d7573742062652063616c6c6564207468726f7567682060408201526b19195b1959d85d1958d85b1b60a21b606082015260800190565b6020808252602c908201527f46756e6374696f6e206d7573742062652063616c6c6564207468726f7567682060408201526b6163746976652070726f787960a01b606082015260800190565b818103818111156118a3576118a361237d565b80820281158282048414176118a3576118a361237d565b6000826124fc57634e487b7160e01b600052601260045260246000fd5b500490565b60006020828403121561251357600080fd5b8151611f9d816120ba565b60ff82811682821603908111156118a3576118a361237d565b600181815b808511156125725781600019048211156125585761255861237d565b8085161561256557918102915b93841c939080029061253c565b509250929050565b600082612589575060016118a3565b81612596575060006118a3565b81600181146125ac57600281146125b6576125d2565b60019150506118a3565b60ff8411156125c7576125c761237d565b50506001821b6118a3565b5060208310610133831016604e8410600b84101617156125f5575081810a6118a3565b6125ff8383612537565b80600019048211156126135761261361237d565b029392505050565b6000611f9d60ff84168361257a565b60006020828403121561263c57600080fd5b5051919050565b6020808252602b908201527f496e697469616c697a61626c653a20636f6e7472616374206973206e6f74206960408201526a6e697469616c697a696e6760a81b606082015260800190565b634e487b7160e01b600052603260045260246000fd5b805169ffffffffffffffffffff811681146126be57600080fd5b919050565b600080600080600060a086880312156126db57600080fd5b6126e4866126a4565b9450602086015193506040860151925060608601519150612707608087016126a4565b90509295509295909350565b60005b8381101561272e578181015183820152602001612716565b50506000910152565b60008251612749818460208701612713565b9190910192915050565b6020815260008251806020840152612772816040850160208701612713565b601f01601f1916919091016040019291505056fe360894a13ba1a3210667c828492db98dca3e2076cc3735a920a3ca505d382bbc416464726573733a206c6f772d6c6576656c2064656c65676174652063616c6c206661696c6564a26469706673582212200cedbdc1146549fde51629ab4a44a207e9dc93862d0339f1e1aef9129a1086f864736f6c63430008140033",
  "devdoc": {
    "events": {
      "AdminChanged(address,address)": {
        "details": "Emitted when the admin account has changed."
      },
      "AuctionCreated(uint256,address,uint256,address,uint256,uint256,address)": {
        "params": {
          "auctionId": "ID",
          "endTime": "",
          "nftAddress": "NFT",
          "paymentTokenAddress": "address(0)ETH    ",
          "seller": "",
          "startTime": "",
          "tokenId": "NFTID   "
        }
      },
      "AuctionEnded(uint256,address,uint256,address)": {
        "params": {
          "auctionId": "ID ",
          "paymentTokenAddress": "address(0)ETH   ",
          "winnerAddress": "",
          "winningBidAmount": ""
        }
      },
      "BeaconUpgraded(address)": {
        "details": "Emitted when the beacon is changed."
      },
      "BidPlaced(uint256,address,uint256,bool,address)": {
        "params": {
          "amount": "",
          "auctionId": "ID",
          "bidder": "",
          "erc20Address": "ERC20ERC20",
          "isERC20": "ERC20"
        }
      },
      "Initialized(uint8)": {
        "details": "Triggered when the contract has been initialized or reinitialized."
      },
      "Upgraded(address)": {
        "details": "Emitted when the implementation is upgraded."
      }
    },
    "kind": "dev",
    "methods": {
      "bid(uint256)": {
        "params": {
          "auctionId": "ID payableETH"
        }
      },
      "bidWithERC20(uint256,uint256)": {
        "params": {
          "amount": "",
          "auctionId": "ID"
        }
      },
      "calculateDynamicFee(uint256)": {
        "params": {
          "auctionId": "ID"
        },
        "returns": {
          "_0": ""
        }
      },
      "createAuction(uint256,address,uint256,uint256,uint256,uint256,address,address)": {
        "params": {
          "auctionId": "ID",
          "endTime": "startTime",
          "nftAddress": "NFT",
          "paymentTokenAddress": "address(0)ETH ",
          "startPrice": "wei",
          "startTime": "",
          "tokenId": "NFTID   "
        }
      },
      "endAuction(uint256)": {
        "params": {
          "auctionId": "ID"
        }
      },
      "getAuctionDetails(uint256)": {
        "params": {
          "auctionId": "ID "
        },
        "returns": {
          "endTime": "startTime  ",
          "highestBid": "wei ",
          "highestBidder": "",
          "nftAddress": "NFT",
          "paymentTokenAddress": "address(0)ETH ",
          "seller": " ",
          "startPrice": "wei",
          "startTime": "",
          "status": " ",
          "tokenId": "NFTID   "
        }
      },
      "getCurrentBidInUSD(uint256)": {
        "params": {
          "auctionId": "ID "
        },
        "returns": {
          "_0": ""
        }
      },
      "initialize(address,address)": {
        "params": {
          "_platformFeeAddress": ""
        }
      },
      "owner()": {
        "details": "Returns the address of the current owner."
      },
      "proxiableUUID()": {
        "details": "Implementation of the ERC1822 {proxiableUUID} function. This returns the storage slot used by the implementation. It is used to validate the implementation's compatibility when performing an upgrade. IMPORTANT: A proxy pointing at a proxiable contract should not be considered proxiable itself, because this risks bricking a proxy that upgrades to it, by delegating to itself until out of gas. Thus it is critical that this function revert if invoked through a proxy. This is guaranteed by the `notDelegated` modifier."
      },
      "renounceOwnership()": {
        "details": "Leaves the contract without owner. It will not be possible to call `onlyOwner` functions. Can only be called by the current owner. NOTE: Renouncing ownership will leave the contract without an owner, thereby disabling any functionality that is only available to the owner."
      },
      "transferOwnership(address)": {
        "details": "Transfers ownership of the contract to a new account (`newOwner`). Can only be called by the current owner."
      },
      "updateFeeParameters(uint256,uint256)": {
        "params": {
          "newBaseFee": "100 = 1%",
          "newThreshold": ""
        }
      },
      "upgradeTo(address)": {
        "custom:oz-upgrades-unsafe-allow-reachable": "delegatecall",
        "details": "Upgrade the implementation of the proxy to `newImplementation`. Calls {_authorizeUpgrade}. Emits an {Upgraded} event."
      },
      "upgradeToAndCall(address,bytes)": {
        "custom:oz-upgrades-unsafe-allow-reachable": "delegatecall",
        "details": "Upgrade the implementation of the proxy to `newImplementation`, and subsequently execute the function call encoded in `data`. Calls {_authorizeUpgrade}. Emits an {Upgraded} event."
      }
    },
    "version": 1
  },
  "userdoc": {
    "events": {
      "AuctionCreated(uint256,address,uint256,address,uint256,uint256,address)": {
        "notice": ""
      },
      "AuctionEnded(uint256,address,uint256,address)": {
        "notice": ""
      },
      "BidPlaced(uint256,address,uint256,bool,address)": {
        "notice": ""
      }
    },
    "kind": "user",
    "methods": {
      "auctionCount()": {
        "notice": " ==> "
      },
      "auctionFactory()": {
        "notice": ""
      },
      "baseFeePercentage()": {
        "notice": "100 = 1%250 = 2.5%"
      },
      "bid(uint256)": {
        "notice": "ETH"
      },
      "bidWithERC20(uint256,uint256)": {
        "notice": "ERC20 "
      },
      "calculateDynamicFee(uint256)": {
        "notice": ""
      },
      "createAuction(uint256,address,uint256,uint256,uint256,uint256,address,address)": {
        "notice": ""
      },
      "endAuction(uint256)": {
        "notice": " "
      },
      "feeThreshold()": {
        "notice": ""
      },
      "getAuctionDetails(uint256)": {
        "notice": ""
      },
      "getCurrentBidInUSD(uint256)": {
        "notice": ""
      },
      "initialize(address,address)": {
        "notice": ""
      },
      "platformFeeAddress()": {
        "notice": " ==> "
      },
      "updateFeeParameters(uint256,uint256)": {
        "notice": ""
      }
    },
    "version": 1
  },
  "storageLayout": {
    "storage": [
      {
        "astId": 549,
        "contract": "contracts/auction/Auction.sol:Auction",
        "label": "_initialized",
        "offset": 0,
        "slot": "0",
        "type": "t_uint8"
      },
      {
        "astId": 552,
        "contract": "contracts/auction/Auction.sol:Auction",
        "label": "_initializing",
        "offset": 1,
        "slot": "0",
        "type": "t_bool"
      },
      {
        "astId": 531,
        "contract": "contracts/auction/Auction.sol:Auction",
        "label": "__gap",
        "offset": 0,
        "slot": "1",
        "type": "t_array(t_uint256)50_storage"
      },
      {
        "astId": 846,
        "contract": "contracts/auction/Auction.sol:Auction",
        "label": "__gap",
        "offset": 0,
        "slot": "51",
        "type": "t_array(t_uint256)50_storage"
      },
      {
        "astId": 1218,
        "contract": "contracts/auction/Auction.sol:Auction",
        "label": "__gap",
        "offset": 0,
        "slot": "101",
        "type": "t_array(t_uint256)50_storage"
      },
      {
        "astId": 56,
        "contract": "contracts/auction/Auction.sol:Auction",
        "label": "_owner",
        "offset": 0,
        "slot": "151",
        "type": "t_address"
      },
      {
        "astId": 176,
        "contract": "contracts/auction/Auction.sol:Auction",
        "label": "__gap",
        "offset": 0,
        "slot": "152",
        "type": "t_array(t_uint256)49_storage"
      },
      {
        "astId": 1887,
        "contract": "contracts/auction/Auction.sol:Auction",
        "label": "_status",
        "offset": 0,
        "slot": "201",
        "type": "t_uint256"
      },
      {
        "astId": 5475,
        "contract": "contracts/auction/Auction.sol:Auction",
        "label": "auctions",
        "offset": 0,
        "slot": "202",
        "type": "t_mapping(t_uint256,t_struct(AuctionInfo)5469_storage)"
      },
      {
        "astId": 5478,
        "contract": "contracts/auction/Auction.sol:Auction",
        "label": "baseFeePercentage",
        "offset": 0,
        "slot": "203",
        "type": "t_uint256"
      },
      {
        "astId": 5481,
        "contract": "contracts/auction/Auction.sol:Auction",
        "label": "feeThreshold",
        "offset": 0,
        "slot": "204",
        "type": "t_uint256"
      },
      {
        "astId": 5484,
        "contract": "contracts/auction/Auction.sol:Auction",
        "label": "auctionCount",
        "offset": 0,
        "slot": "205",
        "type": "t_uint256"
      },
      {
        "astId": 5487,
        "contract": "contracts/auction/Auction.sol:Auction",
        "label": "platformFeeAddress",
        "offset": 0,
        "slot": "206",
        "type": "t_address"
      },
      {
        "astId": 5490,
        "contract": "contracts/auction/Auction.sol:Auction",
        "label": "auctionFactory",
        "offset": 0,
        "slot": "207",
        "type": "t_address"
      }
    ],
    "types": {
      "t_address": {
        "encoding": "inplace",
        "label": "address",
        "numberOfBytes": "20"
      },
      "t_array(t_struct(Bid)6777_storage)dyn_storage": {
        "base": "t_struct(Bid)6777_storage",
        "encoding": "dynamic_array",
        "label": "struct IAuction.Bid[]",
        "numberOfBytes": "32"
      },
      "t_array(t_uint256)49_storage": {
        "base": "t_uint256",
        "encoding": "inplace",
        "label": "uint256[49]",
        "numberOfBytes": "1568"
      },
      "t_array(t_uint256)50_storage": {
        "base": "t_uint256",
        "encoding": "inplace",
        "label": "uint256[50]",
        "numberOfBytes": "1600"
      },
      "t_bool": {
        "encoding": "inplace",
        "label": "bool",
        "numberOfBytes": "1"
      },
      "t_enum(AuctionStatus)6781": {
        "encoding": "inplace",
        "label": "enum IAuction.AuctionStatus",
        "numberOfBytes": "1"
      },
      "t_mapping(t_uint256,t_struct(AuctionInfo)5469_storage)": {
        "encoding": "mapping",
        "key": "t_uint256",
        "label": "mapping(uint256 => struct Auction.AuctionInfo)",
        "numberOfBytes": "32",
        "value": "t_struct(AuctionInfo)5469_storage"
      },
      "t_struct(AuctionInfo)5469_storage": {
        "encoding": "inplace",
        "label": "struct Auction.AuctionInfo",
        "members": [
          {
            "astId": 5445,
            "contract": "contracts/auction/Auction.sol:Auction",
            "label": "nftAddress",
            "offset": 0,
            "slot": "0",
            "type": "t_address"
          },
          {
            "astId": 5447,
            "contract": "contracts/auction/Auction.sol:Auction",
            "label": "tokenId",
            "offset": 0,
            "slot": "1",
            "type": "t_uint256"
          },
          {
            "astId": 5449,
            "contract": "contracts/auction/Auction.sol:Auction",
            "label": "seller",
            "offset": 0,
            "slot": "2",
            "type": "t_address"
          },
          {
            "astId": 5451,
            "contract": "contracts/auction/Auction.sol:Auction",
            "label": "startPrice",
            "offset": 0,
            "slot": "3",
            "type": "t_uint256"
          },
          {
            "astId": 5453,
            "contract": "contracts/auction/Auction.sol:Auction",
            "label": "startTime",
            "offset": 0,
            "slot": "4",
            "type": "t_uint256"
          },
          {
            "astId": 5455,
            "contract": "contracts/auction/Auction.sol:Auction",
            "label": "endTime",
            "offset": 0,
            "slot": "5",
            "type": "t_uint256"
          },
          {
            "astId": 5457,
            "contract": "contracts/auction/Auction.sol:Auction",
            "label": "paymentTokenAddress",
            "offset": 0,
            "slot": "6",
            "type": "t_address"
          },
          {
            "astId": 5460,
            "contract": "contracts/auction/Auction.sol:Auction",
            "label": "status",
            "offset": 20,
            "slot": "6",
            "type": "t_enum(AuctionStatus)6781"
          },
          {
            "astId": 5462,
            "contract": "contracts/auction/Auction.sol:Auction",
            "label": "highestBid",
            "offset": 0,
            "slot": "7",
            "type": "t_uint256"
          },
          {
            "astId": 5464,
            "contract": "contracts/auction/Auction.sol:Auction",
            "label": "highestBidder",
            "offset": 0,
            "slot": "8",
            "type": "t_address"
          },
          {
            "astId": 5468,
            "contract": "contracts/auction/Auction.sol:Auction",
            "label": "bidHistory",
            "offset": 0,
            "slot": "9",
            "type": "t_array(t_struct(Bid)6777_storage)dyn_storage"
          }
        ],
        "numberOfBytes": "320"
      },
      "t_struct(Bid)6777_storage": {
        "encoding": "inplace",
        "label": "struct IAuction.Bid",
        "members": [
          {
            "astId": 6768,
            "contract": "contracts/auction/Auction.sol:Auction",
            "label": "bidder",
            "offset": 0,
            "slot": "0",
            "type": "t_address"
          },
          {
            "astId": 6770,
            "contract": "contracts/auction/Auction.sol:Auction",
            "label": "amount",
            "offset": 0,
            "slot": "1",
            "type": "t_uint256"
          },
          {
            "astId": 6772,
            "contract": "contracts/auction/Auction.sol:Auction",
            "label": "timestamp",
            "offset": 0,
            "slot": "2",
            "type": "t_uint256"
          },
          {
            "astId": 6774,
            "contract": "contracts/auction/Auction.sol:Auction",
            "label": "isERC20",
            "offset": 0,
            "slot": "3",
            "type": "t_bool"
          },
          {
            "astId": 6776,
            "contract": "contracts/auction/Auction.sol:Auction",
            "label": "erc20Address",
            "offset": 1,
            "slot": "3",
            "type": "t_address"
          }
        ],
        "numberOfBytes": "128"
      },
      "t_uint256": {
        "encoding": "inplace",
        "label": "uint256",
        "numberOfBytes": "32"
      },
      "t_uint8": {
        "encoding": "inplace",
        "label": "uint8",
        "numberOfBytes": "1"
      }
    }
  }
}