{
  "address": "0xd27e716aB0a0F96b36dFB40a1fe07544768a471f",
  "abi": [
    {
      "inputs": [
        {
          "internalType": "address",
          "name": "_auctionImplementation",
          "type": "address"
        }
      ],
      "stateMutability": "nonpayable",
      "type": "constructor"
    },
    {
      "anonymous": false,
      "inputs": [
        {
          "indexed": true,
          "internalType": "uint256",
          "name": "auctionId",
          "type": "uint256"
        },
        {
          "indexed": true,
          "internalType": "address",
          "name": "auctionAddress",
          "type": "address"
        },
        {
          "indexed": true,
          "internalType": "address",
          "name": "seller",
          "type": "address"
        }
      ],
      "name": "AuctionCreated",
      "type": "event"
    },
    {
      "anonymous": false,
      "inputs": [
        {
          "indexed": true,
          "internalType": "address",
          "name": "newImplementationAddress",
          "type": "address"
        }
      ],
      "name": "AuctionImplementationUpgraded",
      "type": "event"
    },
    {
      "anonymous": false,
      "inputs": [
        {
          "indexed": false,
          "internalType": "uint256",
          "name": "baseFee",
          "type": "uint256"
        },
        {
          "indexed": false,
          "internalType": "uint256",
          "name": "feeThreshold",
          "type": "uint256"
        }
      ],
      "name": "DynamicFeeParametersUpdated",
      "type": "event"
    },
    {
      "anonymous": false,
      "inputs": [
        {
          "indexed": true,
          "internalType": "address",
          "name": "previousOwner",
          "type": "address"
        },
        {
          "indexed": true,
          "internalType": "address",
          "name": "newOwner",
          "type": "address"
        }
      ],
      "name": "OwnershipTransferred",
      "type": "event"
    },
    {
      "anonymous": false,
      "inputs": [
        {
          "indexed": true,
          "internalType": "address",
          "name": "tokenAddress",
          "type": "address"
        },
        {
          "indexed": false,
          "internalType": "address",
          "name": "priceFeedAddress",
          "type": "address"
        }
      ],
      "name": "TokenPriceFeedSet",
      "type": "event"
    },
    {
      "inputs": [],
      "name": "auctionImplementation",
      "outputs": [
        {
          "internalType": "address",
          "name": "",
          "type": "address"
        }
      ],
      "stateMutability": "view",
      "type": "function"
    },
    {
      "inputs": [
        {
          "internalType": "uint256",
          "name": "",
          "type": "uint256"
        }
      ],
      "name": "auctions",
      "outputs": [
        {
          "internalType": "address",
          "name": "",
          "type": "address"
        }
      ],
      "stateMutability": "view",
      "type": "function"
    },
    {
      "inputs": [],
      "name": "baseFeePercentage",
      "outputs": [
        {
          "internalType": "uint256",
          "name": "",
          "type": "uint256"
        }
      ],
      "stateMutability": "view",
      "type": "function"
    },
    {
      "inputs": [
        {
          "internalType": "address",
          "name": "nftAddress",
          "type": "address"
        },
        {
          "internalType": "uint256",
          "name": "tokenId",
          "type": "uint256"
        },
        {
          "internalType": "uint256",
          "name": "startPrce",
          "type": "uint256"
        },
        {
          "internalType": "uint256",
          "name": "duration",
          "type": "uint256"
        },
        {
          "internalType": "address",
          "name": "acceptedPaymentTokenAddress",
          "type": "address"
        },
        {
          "internalType": "address",
          "name": "treasury",
          "type": "address"
        }
      ],
      "name": "createAuction",
      "outputs": [
        {
          "internalType": "uint256",
          "name": "auctionId",
          "type": "uint256"
        }
      ],
      "stateMutability": "nonpayable",
      "type": "function"
    },
    {
      "inputs": [],
      "name": "feeThreshold",
      "outputs": [
        {
          "internalType": "uint256",
          "name": "",
          "type": "uint256"
        }
      ],
      "stateMutability": "view",
      "type": "function"
    },
    {
      "inputs": [
        {
          "internalType": "uint256",
          "name": "auctionId",
          "type": "uint256"
        }
      ],
      "name": "getAuctionAddress",
      "outputs": [
        {
          "internalType": "address",
          "name": "",
          "type": "address"
        }
      ],
      "stateMutability": "view",
      "type": "function"
    },
    {
      "inputs": [
        {
          "internalType": "address",
          "name": "token",
          "type": "address"
        }
      ],
      "name": "getTokenFeed",
      "outputs": [
        {
          "internalType": "address",
          "name": "",
          "type": "address"
        }
      ],
      "stateMutability": "view",
      "type": "function"
    },
    {
      "inputs": [],
      "name": "owner",
      "outputs": [
        {
          "internalType": "address",
          "name": "",
          "type": "address"
        }
      ],
      "stateMutability": "view",
      "type": "function"
    },
    {
      "inputs": [],
      "name": "renounceOwnership",
      "outputs": [],
      "stateMutability": "nonpayable",
      "type": "function"
    },
    {
      "inputs": [
        {
          "internalType": "uint256",
          "name": "_baseFee",
          "type": "uint256"
        },
        {
          "internalType": "uint256",
          "name": "_feeThreshold",
          "type": "uint256"
        }
      ],
      "name": "setDynamicFeeParameters",
      "outputs": [],
      "stateMutability": "nonpayable",
      "type": "function"
    },
    {
      "inputs": [
        {
          "internalType": "address",
          "name": "",
          "type": "address"
        }
      ],
      "name": "tokenPriceFeeds",
      "outputs": [
        {
          "internalType": "address",
          "name": "",
          "type": "address"
        }
      ],
      "stateMutability": "view",
      "type": "function"
    },
    {
      "inputs": [
        {
          "internalType": "address",
          "name": "newOwner",
          "type": "address"
        }
      ],
      "name": "transferOwnership",
      "outputs": [],
      "stateMutability": "nonpayable",
      "type": "function"
    },
    {
      "inputs": [
        {
          "internalType": "address",
          "name": "newImplementationAddress",
          "type": "address"
        }
      ],
      "name": "upgradeAuctionImplementation",
      "outputs": [],
      "stateMutability": "nonpayable",
      "type": "function"
    },
    {
      "stateMutability": "payable",
      "type": "receive"
    }
  ],
  "transactionHash": "0x0248355a30a7c03260248fa3b808748ecb5b380312d7603fbdd55b3b942664d2",
  "args": [
    "0x3f9cc786bD132d8396AD0b72b675667D0dEEE598"
  ],
  "numDeployments": 1,
  "solcInputHash": "2365b34b5b204c6fc40a42e7f14bae7a",
  "bytecode": "0x608060405234801561001057600080fd5b5060405161118338038061118383398101604081905261002f91610164565b61003833610114565b600680546001600160a01b0319166001600160a01b03831617905560fa60045569021e19e0c9bab240000060055561010e60016020527fa6eef7e35abe7026729641147f7915573c7e97b47efa546f5f6e3230263bcb4980546001600160a01b031990811673694aa1769357215de4fac081bf1f309adc3253061790915573514910771af9ca656af840dff83e8264ecf986ca6000527fe89c7fdde16d73df52123eeeea029dc13aac79541c1e3f4a29a739e9dc0128c7805490911673c59e3633baac79493d908e63626716e204a45edf179055565b50610194565b600080546001600160a01b038381166001600160a01b0319831681178455604051919092169283917f8be0079c531659141344cd1fd0a4f28419497f9722a3daafe3b4186f6b6457e09190a35050565b60006020828403121561017657600080fd5b81516001600160a01b038116811461018d57600080fd5b9392505050565b610fe0806101a36000396000f3fe608060405260043610620000d65760003560e01c80638375bb391162000089578063bd9c47e31162000060578063bd9c47e31462000269578063cb4e162b14620002a3578063df6378e914620002bb578063f2fde38b14620002e057600080fd5b80638375bb3914620001fd5780638da5cb5b1462000224578063a446e7d5146200024457600080fd5b80630695980a14620000e3578063571a26a0146200010a5780636747b94814620001615780636a7f3f6c146200019e578063715018a614620001c0578063798cf77114620001d857600080fd5b36620000de57005b600080fd5b348015620000f057600080fd5b50620001086200010236600462000936565b62000305565b005b3480156200011757600080fd5b50620001446200012936600462000959565b6003602052600090815260409020546001600160a01b031681565b6040516001600160a01b0390911681526020015b60405180910390f35b3480156200016e57600080fd5b50620001446200018036600462000990565b6001600160a01b039081166000908152600160205260409020541690565b348015620001ab57600080fd5b5060065462000144906001600160a01b031681565b348015620001cd57600080fd5b5062000108620003b6565b348015620001e557600080fd5b5062000108620001f736600462000990565b620003ce565b3480156200020a57600080fd5b506200021560045481565b60405190815260200162000158565b3480156200023157600080fd5b506000546001600160a01b031662000144565b3480156200025157600080fd5b506200021562000263366004620009b5565b620004f4565b3480156200027657600080fd5b50620001446200028836600462000990565b6001602052600090815260409020546001600160a01b031681565b348015620002b057600080fd5b506200021560055481565b348015620002c857600080fd5b5062000144620002da36600462000959565b62000784565b348015620002ed57600080fd5b5062000108620002ff36600462000990565b620007fd565b6000546001600160a01b031633146200036f5760405162461bcd60e51b815260206004820152602160248201527f4f6e6c79206f776e65722063616e207365742066656520706172616d657465726044820152607360f81b60648201526084015b60405180910390fd5b6004829055600581905560408051838152602081018390527f40f4493cd0de43cab652a845e12e302d1a572ca84e266c35ea3f858b685bc439910160405180910390a15050565b620003c06200087c565b620003cc6000620008d8565b565b6000546001600160a01b03163314620004385760405162461bcd60e51b815260206004820152602560248201527f4f6e6c79206f776e65722063616e207570677261646520696d706c656d656e7460448201526430ba34b7b760d91b606482015260840162000366565b6001600160a01b038116620004aa5760405162461bcd60e51b815260206004820152603160248201527f4e657720696d706c656d656e746174696f6e20616464726573732063616e6e6f60448201527074206265207a65726f206164647265737360781b606482015260840162000366565b600680546001600160a01b0319166001600160a01b0383169081179091556040517f1ca886c790a96b9c95f616b63222d5ba15ecbac7bb382baf50ec4778bf4a2fbc90600090a250565b6002805460009182620005078362000a31565b90915550506002546006546040516001600160a01b0385811660248301523060448301529293506000929091169060640160408051601f198184030181529181526020820180516001600160e01b031663485cc95560e01b179052516200056e9062000928565b6200057b92919062000a4d565b604051809103906000f08015801562000598573d6000803e3d6000fd5b506000838152600360205260409081902080546001600160a01b0319166001600160a01b03848116918217909255915163095ea7b360e01b81526004810192909252602482018a905291925082918a169063095ea7b390604401600060405180830381600087803b1580156200060d57600080fd5b505af115801562000622573d6000803e3d6000fd5b50505050806001600160a01b03166317e29dc4848b8b8b428c4262000648919062000aad565b6040516001600160e01b031960e089901b16815260048101969096526001600160a01b03948516602487015260448601939093526064850191909152608484015260a4830152881660c48201523360e482015261010401600060405180830381600087803b158015620006ba57600080fd5b505af1158015620006cf573d6000803e3d6000fd5b50506004805460055460405163d4308c8560e01b81526001600160a01b038716955063d4308c8594506200070c9301918252602082015260400190565b600060405180830381600087803b1580156200072757600080fd5b505af11580156200073c573d6000803e3d6000fd5b50506040513392506001600160a01b038416915085907f512995dd21f4740d4aba0bdfb032eb8fdad6034f857101e2217bef00c285015f90600090a450509695505050505050565b6000808211620007e15760405162461bcd60e51b815260206004820152602160248201527f41756374696f6e204944206d7573742062652067726561746572207468616e206044820152600360fc1b606482015260840162000366565b506000908152600360205260409020546001600160a01b031690565b620008076200087c565b6001600160a01b0381166200086e5760405162461bcd60e51b815260206004820152602660248201527f4f776e61626c653a206e6577206f776e657220697320746865207a65726f206160448201526564647265737360d01b606482015260840162000366565b6200087981620008d8565b50565b6000546001600160a01b03163314620003cc5760405162461bcd60e51b815260206004820181905260248201527f4f776e61626c653a2063616c6c6572206973206e6f7420746865206f776e6572604482015260640162000366565b600080546001600160a01b038381166001600160a01b0319831681178455604051919092169283917f8be0079c531659141344cd1fd0a4f28419497f9722a3daafe3b4186f6b6457e09190a35050565b6104e18062000aca83390190565b600080604083850312156200094a57600080fd5b50508035926020909101359150565b6000602082840312156200096c57600080fd5b5035919050565b80356001600160a01b03811681146200098b57600080fd5b919050565b600060208284031215620009a357600080fd5b620009ae8262000973565b9392505050565b60008060008060008060c08789031215620009cf57600080fd5b620009da8762000973565b9550602087013594506040870135935060608701359250620009ff6080880162000973565b915062000a0f60a0880162000973565b90509295509295509295565b634e487b7160e01b600052601160045260246000fd5b60006001820162000a465762000a4662000a1b565b5060010190565b60018060a01b038316815260006020604081840152835180604085015260005b8181101562000a8b5785810183015185820160600152820162000a6d565b506000606082860101526060601f19601f830116850101925050509392505050565b8082018082111562000ac35762000ac362000a1b565b9291505056fe60806040526040516104e13803806104e1833981016040819052610022916102de565b61002e82826000610035565b50506103fb565b61003e83610061565b60008251118061004b5750805b1561005c5761005a83836100a1565b505b505050565b61006a816100cd565b6040516001600160a01b038216907fbc7cd75a20ee27fd9adebab32041f755214dbc6bffa90cc0225b39da2e5c2d3b90600090a250565b60606100c683836040518060600160405280602781526020016104ba60279139610180565b9392505050565b6001600160a01b0381163b61013f5760405162461bcd60e51b815260206004820152602d60248201527f455243313936373a206e657720696d706c656d656e746174696f6e206973206e60448201526c1bdd08184818dbdb9d1c9858dd609a1b60648201526084015b60405180910390fd5b7f360894a13ba1a3210667c828492db98dca3e2076cc3735a920a3ca505d382bbc80546001600160a01b0319166001600160a01b0392909216919091179055565b6060600080856001600160a01b03168560405161019d91906103ac565b600060405180830381855af49150503d80600081146101d8576040519150601f19603f3d011682016040523d82523d6000602084013e6101dd565b606091505b5090925090506101ef868383876101f9565b9695505050505050565b60608315610268578251600003610261576001600160a01b0385163b6102615760405162461bcd60e51b815260206004820152601d60248201527f416464726573733a2063616c6c20746f206e6f6e2d636f6e74726163740000006044820152606401610136565b5081610272565b610272838361027a565b949350505050565b81511561028a5781518083602001fd5b8060405162461bcd60e51b815260040161013691906103c8565b634e487b7160e01b600052604160045260246000fd5b60005b838110156102d55781810151838201526020016102bd565b50506000910152565b600080604083850312156102f157600080fd5b82516001600160a01b038116811461030857600080fd5b60208401519092506001600160401b038082111561032557600080fd5b818501915085601f83011261033957600080fd5b81518181111561034b5761034b6102a4565b604051601f8201601f19908116603f01168101908382118183101715610373576103736102a4565b8160405282815288602084870101111561038c57600080fd5b61039d8360208301602088016102ba565b80955050505050509250929050565b600082516103be8184602087016102ba565b9190910192915050565b60208152600082518060208401526103e78160408501602087016102ba565b601f01601f19169190910160400192915050565b60b1806104096000396000f3fe608060405236601057600e6013565b005b600e5b601f601b6021565b6058565b565b600060537f360894a13ba1a3210667c828492db98dca3e2076cc3735a920a3ca505d382bbc546001600160a01b031690565b905090565b3660008037600080366000845af43d6000803e8080156076573d6000f35b3d6000fdfea2646970667358221220abeccc7d2716ec72bac6c02bac37b2d55b1ebc7c8be49ead96efd3e69824da2064736f6c63430008140033416464726573733a206c6f772d6c6576656c2064656c65676174652063616c6c206661696c6564a2646970667358221220297382f33ee43a166a04e539ad744947d1f1727f632f66d7e0f696de769fb0b764736f6c63430008140033",
  "devdoc": {
    "events": {
      "AuctionCreated(uint256,address,address)": {
        "details": "",
        "params": {
          "auctionAddress": " ",
          "auctionId": "ID ID",
          "seller": " "
        }
      },
      "AuctionImplementationUpgraded(address)": {
        "details": "",
        "params": {
          "newImplementationAddress": " "
        }
      },
      "DynamicFeeParametersUpdated(uint256,uint256)": {
        "details": "",
        "params": {
          "baseFee": "1001%",
          "feeThreshold": ""
        }
      },
      "TokenPriceFeedSet(address,address)": {
        "details": "",
        "params": {
          "priceFeedAddress": "",
          "tokenAddress": ""
        }
      }
    },
    "kind": "dev",
    "methods": {
      "createAuction(address,uint256,uint256,uint256,address,address)": {
        "details": " ",
        "params": {
          "acceptedPaymentTokenAddress": "0ETH",
          "duration": "",
          "nftAddress": "NFT",
          "startPrce": "",
          "tokenId": "NFTID"
        },
        "returns": {
          "auctionId": "ID"
        }
      },
      "getAuctionAddress(uint256)": {
        "details": "ID",
        "params": {
          "auctionId": "ID"
        },
        "returns": {
          "_0": "auctionAddress address(0)"
        }
      },
      "getTokenFeed(address)": {
        "params": {
          "token": ""
        }
      },
      "owner()": {
        "details": "Returns the address of the current owner."
      },
      "renounceOwnership()": {
        "details": "Leaves the contract without owner. It will not be possible to call `onlyOwner` functions. Can only be called by the current owner. NOTE: Renouncing ownership will leave the contract without an owner, thereby disabling any functionality that is only available to the owner."
      },
      "setDynamicFeeParameters(uint256,uint256)": {
        "details": "",
        "params": {
          "_baseFee": "1001%",
          "_feeThreshold": ""
        }
      },
      "transferOwnership(address)": {
        "details": "Transfers ownership of the contract to a new account (`newOwner`). Can only be called by the current owner."
      },
      "upgradeAuctionImplementation(address)": {
        "details": "",
        "params": {
          "newImplementationAddress": ""
        }
      }
    },
    "version": 1
  },
  "userdoc": {
    "events": {
      "AuctionCreated(uint256,address,address)": {
        "notice": ""
      },
      "AuctionImplementationUpgraded(address)": {
        "notice": ""
      },
      "DynamicFeeParametersUpdated(uint256,uint256)": {
        "notice": "; "
      },
      "TokenPriceFeedSet(address,address)": {
        "notice": ""
      }
    },
    "kind": "user",
    "methods": {
      "createAuction(address,uint256,uint256,uint256,address,address)": {
        "notice": ""
      },
      "getAuctionAddress(uint256)": {
        "notice": ""
      },
      "getTokenFeed(address)": {
        "notice": ""
      },
      "setDynamicFeeParameters(uint256,uint256)": {
        "notice": ""
      },
      "upgradeAuctionImplementation(address)": {
        "notice": ""
      }
    },
    "version": 1
  },
  "storageLayout": {
    "storage": [
      {
        "astId": 1337,
        "contract": "contracts/auction/AuctionFactory.sol:AuctionFactory",
        "label": "_owner",
        "offset": 0,
        "slot": "0",
        "type": "t_address"
      },
      {
        "astId": 6483,
        "contract": "contracts/auction/AuctionFactory.sol:AuctionFactory",
        "label": "tokenPriceFeeds",
        "offset": 0,
        "slot": "1",
        "type": "t_mapping(t_address,t_address)"
      },
      {
        "astId": 6485,
        "contract": "contracts/auction/AuctionFactory.sol:AuctionFactory",
        "label": "auctionIdCounter",
        "offset": 0,
        "slot": "2",
        "type": "t_uint256"
      },
      {
        "astId": 6489,
        "contract": "contracts/auction/AuctionFactory.sol:AuctionFactory",
        "label": "auctions",
        "offset": 0,
        "slot": "3",
        "type": "t_mapping(t_uint256,t_address)"
      },
      {
        "astId": 6491,
        "contract": "contracts/auction/AuctionFactory.sol:AuctionFactory",
        "label": "baseFeePercentage",
        "offset": 0,
        "slot": "4",
        "type": "t_uint256"
      },
      {
        "astId": 6493,
        "contract": "contracts/auction/AuctionFactory.sol:AuctionFactory",
        "label": "feeThreshold",
        "offset": 0,
        "slot": "5",
        "type": "t_uint256"
      },
      {
        "astId": 6495,
        "contract": "contracts/auction/AuctionFactory.sol:AuctionFactory",
        "label": "auctionImplementation",
        "offset": 0,
        "slot": "6",
        "type": "t_address"
      }
    ],
    "types": {
      "t_address": {
        "encoding": "inplace",
        "label": "address",
        "numberOfBytes": "20"
      },
      "t_mapping(t_address,t_address)": {
        "encoding": "mapping",
        "key": "t_address",
        "label": "mapping(address => address)",
        "numberOfBytes": "32",
        "value": "t_address"
      },
      "t_mapping(t_uint256,t_address)": {
        "encoding": "mapping",
        "key": "t_uint256",
        "label": "mapping(uint256 => address)",
        "numberOfBytes": "32",
        "value": "t_address"
      },
      "t_uint256": {
        "encoding": "inplace",
        "label": "uint256",
        "numberOfBytes": "32"
      }
    }
  }
}